{
  "contractName": "NFTFarm",
  "abi": [
    {
      "inputs": [
        {
          "internalType": "uint256",
          "name": "_emissionRate",
          "type": "uint256"
        },
        {
          "internalType": "contract USDCToken",
          "name": "_token",
          "type": "address"
        },
        {
          "internalType": "contract Crops",
          "name": "_crops",
          "type": "address"
        }
      ],
      "stateMutability": "nonpayable",
      "type": "constructor"
    },
    {
      "anonymous": false,
      "inputs": [
        {
          "indexed": true,
          "internalType": "address",
          "name": "previousOwner",
          "type": "address"
        },
        {
          "indexed": true,
          "internalType": "address",
          "name": "newOwner",
          "type": "address"
        }
      ],
      "name": "OwnershipTransferred",
      "type": "event"
    },
    {
      "inputs": [],
      "name": "crops",
      "outputs": [
        {
          "internalType": "contract Crops",
          "name": "",
          "type": "address"
        }
      ],
      "stateMutability": "view",
      "type": "function",
      "constant": true
    },
    {
      "inputs": [],
      "name": "emissionRate",
      "outputs": [
        {
          "internalType": "uint256",
          "name": "",
          "type": "uint256"
        }
      ],
      "stateMutability": "view",
      "type": "function",
      "constant": true
    },
    {
      "inputs": [
        {
          "internalType": "uint256",
          "name": "",
          "type": "uint256"
        }
      ],
      "name": "nftInfo",
      "outputs": [
        {
          "internalType": "uint256",
          "name": "id",
          "type": "uint256"
        },
        {
          "internalType": "uint256",
          "name": "remaining",
          "type": "uint256"
        },
        {
          "internalType": "uint256",
          "name": "price",
          "type": "uint256"
        }
      ],
      "stateMutability": "view",
      "type": "function",
      "constant": true
    },
    {
      "inputs": [
        {
          "internalType": "address",
          "name": "",
          "type": "address"
        },
        {
          "internalType": "address",
          "name": "",
          "type": "address"
        },
        {
          "internalType": "uint256[]",
          "name": "",
          "type": "uint256[]"
        },
        {
          "internalType": "uint256[]",
          "name": "",
          "type": "uint256[]"
        },
        {
          "internalType": "bytes",
          "name": "",
          "type": "bytes"
        }
      ],
      "name": "onERC1155BatchReceived",
      "outputs": [
        {
          "internalType": "bytes4",
          "name": "",
          "type": "bytes4"
        }
      ],
      "stateMutability": "nonpayable",
      "type": "function"
    },
    {
      "inputs": [
        {
          "internalType": "address",
          "name": "",
          "type": "address"
        },
        {
          "internalType": "address",
          "name": "",
          "type": "address"
        },
        {
          "internalType": "uint256",
          "name": "",
          "type": "uint256"
        },
        {
          "internalType": "uint256",
          "name": "",
          "type": "uint256"
        },
        {
          "internalType": "bytes",
          "name": "",
          "type": "bytes"
        }
      ],
      "name": "onERC1155Received",
      "outputs": [
        {
          "internalType": "bytes4",
          "name": "",
          "type": "bytes4"
        }
      ],
      "stateMutability": "nonpayable",
      "type": "function"
    },
    {
      "inputs": [],
      "name": "owner",
      "outputs": [
        {
          "internalType": "address",
          "name": "",
          "type": "address"
        }
      ],
      "stateMutability": "view",
      "type": "function",
      "constant": true
    },
    {
      "inputs": [],
      "name": "renounceOwnership",
      "outputs": [],
      "stateMutability": "nonpayable",
      "type": "function"
    },
    {
      "inputs": [
        {
          "internalType": "bytes4",
          "name": "interfaceId",
          "type": "bytes4"
        }
      ],
      "name": "supportsInterface",
      "outputs": [
        {
          "internalType": "bool",
          "name": "",
          "type": "bool"
        }
      ],
      "stateMutability": "view",
      "type": "function",
      "constant": true
    },
    {
      "inputs": [],
      "name": "token",
      "outputs": [
        {
          "internalType": "contract USDCToken",
          "name": "",
          "type": "address"
        }
      ],
      "stateMutability": "view",
      "type": "function",
      "constant": true
    },
    {
      "inputs": [
        {
          "internalType": "address",
          "name": "newOwner",
          "type": "address"
        }
      ],
      "name": "transferOwnership",
      "outputs": [],
      "stateMutability": "nonpayable",
      "type": "function"
    },
    {
      "inputs": [
        {
          "internalType": "address",
          "name": "",
          "type": "address"
        }
      ],
      "name": "userInfo",
      "outputs": [
        {
          "internalType": "uint256",
          "name": "stakedAmount",
          "type": "uint256"
        },
        {
          "internalType": "uint256",
          "name": "lastUpdateAt",
          "type": "uint256"
        },
        {
          "internalType": "uint256",
          "name": "pointsDebt",
          "type": "uint256"
        }
      ],
      "stateMutability": "view",
      "type": "function",
      "constant": true
    },
    {
      "inputs": [
        {
          "internalType": "uint256[]",
          "name": "_ids",
          "type": "uint256[]"
        },
        {
          "internalType": "uint256[]",
          "name": "_totals",
          "type": "uint256[]"
        },
        {
          "internalType": "uint256[]",
          "name": "_prices",
          "type": "uint256[]"
        }
      ],
      "name": "addNFTs",
      "outputs": [],
      "stateMutability": "nonpayable",
      "type": "function"
    },
    {
      "inputs": [
        {
          "internalType": "uint256",
          "name": "_amount",
          "type": "uint256"
        }
      ],
      "name": "stakeTokens",
      "outputs": [],
      "stateMutability": "nonpayable",
      "type": "function"
    },
    {
      "inputs": [
        {
          "internalType": "uint256[]",
          "name": "_nftIndexes",
          "type": "uint256[]"
        },
        {
          "internalType": "uint256[]",
          "name": "_quantities",
          "type": "uint256[]"
        }
      ],
      "name": "claimNFTs",
      "outputs": [],
      "stateMutability": "nonpayable",
      "type": "function"
    },
    {
      "inputs": [],
      "name": "unstakeTokens",
      "outputs": [],
      "stateMutability": "nonpayable",
      "type": "function"
    },
    {
      "inputs": [
        {
          "internalType": "address",
          "name": "userAddress",
          "type": "address"
        }
      ],
      "name": "pointsBalance",
      "outputs": [
        {
          "internalType": "uint256",
          "name": "",
          "type": "uint256"
        }
      ],
      "stateMutability": "view",
      "type": "function",
      "constant": true
    },
    {
      "inputs": [],
      "name": "nftCount",
      "outputs": [
        {
          "internalType": "uint256",
          "name": "",
          "type": "uint256"
        }
      ],
      "stateMutability": "view",
      "type": "function",
      "constant": true
    }
  ],
  "bytecode": "0x60806040523480156200001157600080fd5b50604051620022ab380380620022ab8339818101604052810190620000379190620002b3565b620000576200004b620000e960201b60201c565b620000f160201b60201c565b8260018190555081600260006101000a81548173ffffffffffffffffffffffffffffffffffffffff021916908373ffffffffffffffffffffffffffffffffffffffff16021790555080600360006101000a81548173ffffffffffffffffffffffffffffffffffffffff021916908373ffffffffffffffffffffffffffffffffffffffff1602179055505050506200030f565b600033905090565b60008060009054906101000a900473ffffffffffffffffffffffffffffffffffffffff169050816000806101000a81548173ffffffffffffffffffffffffffffffffffffffff021916908373ffffffffffffffffffffffffffffffffffffffff1602179055508173ffffffffffffffffffffffffffffffffffffffff168173ffffffffffffffffffffffffffffffffffffffff167f8be0079c531659141344cd1fd0a4f28419497f9722a3daafe3b4186f6b6457e060405160405180910390a35050565b600080fd5b6000819050919050565b620001cf81620001ba565b8114620001db57600080fd5b50565b600081519050620001ef81620001c4565b92915050565b600073ffffffffffffffffffffffffffffffffffffffff82169050919050565b60006200022282620001f5565b9050919050565b6000620002368262000215565b9050919050565b620002488162000229565b81146200025457600080fd5b50565b60008151905062000268816200023d565b92915050565b60006200027b8262000215565b9050919050565b6200028d816200026e565b81146200029957600080fd5b50565b600081519050620002ad8162000282565b92915050565b600080600060608486031215620002cf57620002ce620001b5565b5b6000620002df86828701620001de565b9350506020620002f28682870162000257565b925050604062000305868287016200029c565b9150509250925092565b611f8c806200031f6000396000f3fe608060405234801561001057600080fd5b506004361061010b5760003560e01c8063715018a6116100a2578063a5ce413b11610071578063a5ce413b146102aa578063bc197c81146102b4578063f23a6e61146102e4578063f2fde38b14610314578063fc0c546a146103305761010b565b8063715018a6146102485780637547c7a3146102525780638da5cb5b1461026e57806396afc4501461028c5761010b565b806323c9bc52116100de57806323c9bc52146101c257806325ca4cff146101e05780634b427e6414610210578063574e700f1461022c5761010b565b806301ffc9a7146101105780630af2c6ca146101405780631959a0021461015e5780631f8bc79014610190575b600080fd5b61012a600480360381019061012591906111b6565b61034e565b60405161013791906111fe565b60405180910390f35b6101486103c8565b6040516101559190611232565b60405180910390f35b610178600480360381019061017391906112ab565b6103d5565b604051610187939291906112d8565b60405180910390f35b6101aa60048036038101906101a5919061133b565b6103ff565b6040516101b9939291906112d8565b60405180910390f35b6101ca610439565b6040516101d791906113c7565b60405180910390f35b6101fa60048036038101906101f591906112ab565b61045f565b6040516102079190611232565b60405180910390f35b61022a60048036038101906102259190611447565b6104ec565b005b610246600480360381019061024191906114c8565b610864565b005b610250610ad2565b005b61026c6004803603810190610267919061133b565b610b5a565b005b610276610c86565b604051610283919061158b565b60405180910390f35b610294610caf565b6040516102a19190611232565b60405180910390f35b6102b2610cb5565b005b6102ce60048036038101906102c991906117aa565b610e98565b6040516102db9190611888565b60405180910390f35b6102fe60048036038101906102f991906118a3565b610ead565b60405161030b9190611888565b60405180910390f35b61032e600480360381019061032991906112ab565b610ec2565b005b610338610fb9565b604051610345919061195b565b60405180910390f35b60007f4e2312e0000000000000000000000000000000000000000000000000000000007bffffffffffffffffffffffffffffffffffffffffffffffffffffffff1916827bffffffffffffffffffffffffffffffffffffffffffffffffffffffff191614806103c157506103c082610fdf565b5b9050919050565b6000600480549050905090565b60056020528060005260406000206000915090508060000154908060010154908060020154905083565b6004818154811061040f57600080fd5b90600052602060002090600302016000915090508060000154908060010154908060020154905083565b600360009054906101000a900473ffffffffffffffffffffffffffffffffffffffff1681565b600080600560008473ffffffffffffffffffffffffffffffffffffffff1673ffffffffffffffffffffffffffffffffffffffff16815260200190815260200160002090506104d5816040518060600160405290816000820154815260200160018201548152602001600282015481525050611049565b81600201546104e491906119a5565b915050919050565b818190508484905014610534576040517f08c379a000000000000000000000000000000000000000000000000000000000815260040161052b90611a36565b60405180910390fd5b60005b848490508167ffffffffffffffff1610156107c6576000600486868467ffffffffffffffff1681811061056d5761056c611a56565b5b905060200201358154811061058557610584611a56565b5b90600052602060002090600302019050600084848467ffffffffffffffff168181106105b4576105b3611a56565b5b9050602002013582600201546105ca9190611a85565b905060006105d73361045f565b905085858567ffffffffffffffff168181106105f6576105f5611a56565b5b90506020020135836001015411610642576040517f08c379a000000000000000000000000000000000000000000000000000000000815260040161063990611b13565b60405180910390fd5b81811015610685576040517f08c379a000000000000000000000000000000000000000000000000000000000815260040161067c90611b7f565b60405180910390fd5b6000600560003373ffffffffffffffffffffffffffffffffffffffff1673ffffffffffffffffffffffffffffffffffffffff1681526020019081526020016000206040518060600160405290816000820154815260200160018201548152602001600282015481525050905082826106fd9190611b9f565b8160400181815250504281602001818152505080600560003373ffffffffffffffffffffffffffffffffffffffff1673ffffffffffffffffffffffffffffffffffffffff16815260200190815260200160002060008201518160000155602082015181600101556040820151816002015590505086868667ffffffffffffffff1681811061078e5761078d611a56565b5b905060200201358460010160008282546107a89190611b9f565b925050819055505050505080806107be90611be7565b915050610537565b50600360009054906101000a900473ffffffffffffffffffffffffffffffffffffffff1673ffffffffffffffffffffffffffffffffffffffff16632eb2c2d63033878787876040518763ffffffff1660e01b815260040161082c96959493929190611cc9565b600060405180830381600087803b15801561084657600080fd5b505af115801561085a573d6000803e3d6000fd5b5050505050505050565b61086c61107e565b73ffffffffffffffffffffffffffffffffffffffff1661088a610c86565b73ffffffffffffffffffffffffffffffffffffffff16146108e0576040517f08c379a00000000000000000000000000000000000000000000000000000000081526004016108d790611d7f565b60405180910390fd5b838390508686905014806108f957508181905084849050145b610938576040517f08c379a000000000000000000000000000000000000000000000000000000000815260040161092f90611a36565b60405180910390fd5b600360009054906101000a900473ffffffffffffffffffffffffffffffffffffffff1673ffffffffffffffffffffffffffffffffffffffff16632eb2c2d63330898989896040518763ffffffff1660e01b815260040161099d96959493929190611cc9565b600060405180830381600087803b1580156109b757600080fd5b505af11580156109cb573d6000803e3d6000fd5b5050505060005b868690508167ffffffffffffffff161015610ac9576004604051806060016040528089898567ffffffffffffffff16818110610a1157610a10611a56565b5b90506020020135815260200187878567ffffffffffffffff16818110610a3a57610a39611a56565b5b90506020020135815260200185858567ffffffffffffffff16818110610a6357610a62611a56565b5b90506020020135815250908060018154018082558091505060019003906000526020600020906003020160009091909190915060008201518160000155602082015181600101556040820151816002015550508080610ac190611be7565b9150506109d2565b50505050505050565b610ada61107e565b73ffffffffffffffffffffffffffffffffffffffff16610af8610c86565b73ffffffffffffffffffffffffffffffffffffffff1614610b4e576040517f08c379a0000000000000000000000000000000000000000000000000000000008152600401610b4590611d7f565b60405180910390fd5b610b586000611086565b565b600260009054906101000a900473ffffffffffffffffffffffffffffffffffffffff1673ffffffffffffffffffffffffffffffffffffffff166323b872dd3330846040518463ffffffff1660e01b8152600401610bb993929190611d9f565b6020604051808303816000875af1158015610bd8573d6000803e3d6000fd5b505050506040513d601f19601f82011682018060405250810190610bfc9190611e02565b506000600560003373ffffffffffffffffffffffffffffffffffffffff1673ffffffffffffffffffffffffffffffffffffffff16815260200190815260200160002090506000816000015414610c5e57610c553361045f565b81600201819055505b81816000016000828254610c7291906119a5565b925050819055504281600101819055505050565b60008060009054906101000a900473ffffffffffffffffffffffffffffffffffffffff16905090565b60015481565b6000600560003373ffffffffffffffffffffffffffffffffffffffff1673ffffffffffffffffffffffffffffffffffffffff168152602001908152602001600020604051806060016040529081600082015481526020016001820154815260200160028201548152505090506000816000015111610d68576040517f08c379a0000000000000000000000000000000000000000000000000000000008152600401610d5f90611e7b565b60405180910390fd5b600260009054906101000a900473ffffffffffffffffffffffffffffffffffffffff1673ffffffffffffffffffffffffffffffffffffffff1663a9059cbb3383600001516040518363ffffffff1660e01b8152600401610dc9929190611e9b565b6020604051808303816000875af1158015610de8573d6000803e3d6000fd5b505050506040513d601f19601f82011682018060405250810190610e0c9190611e02565b50610e163361045f565b81604001818152505060008160000181815250504281602001818152505080600560003373ffffffffffffffffffffffffffffffffffffffff1673ffffffffffffffffffffffffffffffffffffffff16815260200190815260200160002060008201518160000155602082015181600101556040820151816002015590505050565b600063bc197c8160e01b905095945050505050565b600063f23a6e6160e01b905095945050505050565b610eca61107e565b73ffffffffffffffffffffffffffffffffffffffff16610ee8610c86565b73ffffffffffffffffffffffffffffffffffffffff1614610f3e576040517f08c379a0000000000000000000000000000000000000000000000000000000008152600401610f3590611d7f565b60405180910390fd5b600073ffffffffffffffffffffffffffffffffffffffff168173ffffffffffffffffffffffffffffffffffffffff1603610fad576040517f08c379a0000000000000000000000000000000000000000000000000000000008152600401610fa490611f36565b60405180910390fd5b610fb681611086565b50565b600260009054906101000a900473ffffffffffffffffffffffffffffffffffffffff1681565b60007f01ffc9a7000000000000000000000000000000000000000000000000000000007bffffffffffffffffffffffffffffffffffffffffffffffffffffffff1916827bffffffffffffffffffffffffffffffffffffffffffffffffffffffff1916149050919050565b6000816000015160015461105d9190611a85565b82602001514261106d9190611b9f565b6110779190611a85565b9050919050565b600033905090565b60008060009054906101000a900473ffffffffffffffffffffffffffffffffffffffff169050816000806101000a81548173ffffffffffffffffffffffffffffffffffffffff021916908373ffffffffffffffffffffffffffffffffffffffff1602179055508173ffffffffffffffffffffffffffffffffffffffff168173ffffffffffffffffffffffffffffffffffffffff167f8be0079c531659141344cd1fd0a4f28419497f9722a3daafe3b4186f6b6457e060405160405180910390a35050565b6000604051905090565b600080fd5b600080fd5b60007fffffffff0000000000000000000000000000000000000000000000000000000082169050919050565b6111938161115e565b811461119e57600080fd5b50565b6000813590506111b08161118a565b92915050565b6000602082840312156111cc576111cb611154565b5b60006111da848285016111a1565b91505092915050565b60008115159050919050565b6111f8816111e3565b82525050565b600060208201905061121360008301846111ef565b92915050565b6000819050919050565b61122c81611219565b82525050565b60006020820190506112476000830184611223565b92915050565b600073ffffffffffffffffffffffffffffffffffffffff82169050919050565b60006112788261124d565b9050919050565b6112888161126d565b811461129357600080fd5b50565b6000813590506112a58161127f565b92915050565b6000602082840312156112c1576112c0611154565b5b60006112cf84828501611296565b91505092915050565b60006060820190506112ed6000830186611223565b6112fa6020830185611223565b6113076040830184611223565b949350505050565b61131881611219565b811461132357600080fd5b50565b6000813590506113358161130f565b92915050565b60006020828403121561135157611350611154565b5b600061135f84828501611326565b91505092915050565b6000819050919050565b600061138d6113886113838461124d565b611368565b61124d565b9050919050565b600061139f82611372565b9050919050565b60006113b182611394565b9050919050565b6113c1816113a6565b82525050565b60006020820190506113dc60008301846113b8565b92915050565b600080fd5b600080fd5b600080fd5b60008083601f840112611407576114066113e2565b5b8235905067ffffffffffffffff811115611424576114236113e7565b5b6020830191508360208202830111156114405761143f6113ec565b5b9250929050565b6000806000806040858703121561146157611460611154565b5b600085013567ffffffffffffffff81111561147f5761147e611159565b5b61148b878288016113f1565b9450945050602085013567ffffffffffffffff8111156114ae576114ad611159565b5b6114ba878288016113f1565b925092505092959194509250565b600080600080600080606087890312156114e5576114e4611154565b5b600087013567ffffffffffffffff81111561150357611502611159565b5b61150f89828a016113f1565b9650965050602087013567ffffffffffffffff81111561153257611531611159565b5b61153e89828a016113f1565b9450945050604087013567ffffffffffffffff81111561156157611560611159565b5b61156d89828a016113f1565b92509250509295509295509295565b6115858161126d565b82525050565b60006020820190506115a0600083018461157c565b92915050565b6000601f19601f8301169050919050565b7f4e487b7100000000000000000000000000000000000000000000000000000000600052604160045260246000fd5b6115ef826115a6565b810181811067ffffffffffffffff8211171561160e5761160d6115b7565b5b80604052505050565b600061162161114a565b905061162d82826115e6565b919050565b600067ffffffffffffffff82111561164d5761164c6115b7565b5b602082029050602081019050919050565b600061167161166c84611632565b611617565b90508083825260208201905060208402830185811115611694576116936113ec565b5b835b818110156116bd57806116a98882611326565b845260208401935050602081019050611696565b5050509392505050565b600082601f8301126116dc576116db6113e2565b5b81356116ec84826020860161165e565b91505092915050565b600080fd5b600067ffffffffffffffff821115611715576117146115b7565b5b61171e826115a6565b9050602081019050919050565b82818337600083830152505050565b600061174d611748846116fa565b611617565b905082815260208101848484011115611769576117686116f5565b5b61177484828561172b565b509392505050565b600082601f830112611791576117906113e2565b5b81356117a184826020860161173a565b91505092915050565b600080600080600060a086880312156117c6576117c5611154565b5b60006117d488828901611296565b95505060206117e588828901611296565b945050604086013567ffffffffffffffff81111561180657611805611159565b5b611812888289016116c7565b935050606086013567ffffffffffffffff81111561183357611832611159565b5b61183f888289016116c7565b925050608086013567ffffffffffffffff8111156118605761185f611159565b5b61186c8882890161177c565b9150509295509295909350565b6118828161115e565b82525050565b600060208201905061189d6000830184611879565b92915050565b600080600080600060a086880312156118bf576118be611154565b5b60006118cd88828901611296565b95505060206118de88828901611296565b94505060406118ef88828901611326565b935050606061190088828901611326565b925050608086013567ffffffffffffffff81111561192157611920611159565b5b61192d8882890161177c565b9150509295509295909350565b600061194582611394565b9050919050565b6119558161193a565b82525050565b6000602082019050611970600083018461194c565b92915050565b7f4e487b7100000000000000000000000000000000000000000000000000000000600052601160045260246000fd5b60006119b082611219565b91506119bb83611219565b92508282019050808211156119d3576119d2611976565b5b92915050565b600082825260208201905092915050565b7f496e636f7272656374206172726179206c656e67746800000000000000000000600082015250565b6000611a206016836119d9565b9150611a2b826119ea565b602082019050919050565b60006020820190508181036000830152611a4f81611a13565b9050919050565b7f4e487b7100000000000000000000000000000000000000000000000000000000600052603260045260246000fd5b6000611a9082611219565b9150611a9b83611219565b9250828202611aa981611219565b91508282048414831517611ac057611abf611976565b5b5092915050565b7f4e6f7420656e6f756768204e46542063726f707320696e206661726d00000000600082015250565b6000611afd601c836119d9565b9150611b0882611ac7565b602082019050919050565b60006020820190508181036000830152611b2c81611af0565b9050919050565b7f496e73756666696369656e7420506f696e747300000000000000000000000000600082015250565b6000611b696013836119d9565b9150611b7482611b33565b602082019050919050565b60006020820190508181036000830152611b9881611b5c565b9050919050565b6000611baa82611219565b9150611bb583611219565b9250828203905081811115611bcd57611bcc611976565b5b92915050565b600067ffffffffffffffff82169050919050565b6000611bf282611bd3565b915067ffffffffffffffff8203611c0c57611c0b611976565b5b600182019050919050565b600082825260208201905092915050565b600080fd5b82818337505050565b6000611c428385611c17565b93507f07ffffffffffffffffffffffffffffffffffffffffffffffffffffffffffffff831115611c7557611c74611c28565b5b602083029250611c86838584611c2d565b82840190509392505050565b600082825260208201905092915050565b50565b6000611cb3600083611c92565b9150611cbe82611ca3565b600082019050919050565b600060a082019050611cde600083018961157c565b611ceb602083018861157c565b8181036040830152611cfe818688611c36565b90508181036060830152611d13818486611c36565b90508181036080830152611d2681611ca6565b9050979650505050505050565b7f4f776e61626c653a2063616c6c6572206973206e6f7420746865206f776e6572600082015250565b6000611d696020836119d9565b9150611d7482611d33565b602082019050919050565b60006020820190508181036000830152611d9881611d5c565b9050919050565b6000606082019050611db4600083018661157c565b611dc1602083018561157c565b611dce6040830184611223565b949350505050565b611ddf816111e3565b8114611dea57600080fd5b50565b600081519050611dfc81611dd6565b92915050565b600060208284031215611e1857611e17611154565b5b6000611e2684828501611ded565b91505092915050565b7f7374616b696e672062616c616e63652063616e6e6f7420626520300000000000600082015250565b6000611e65601b836119d9565b9150611e7082611e2f565b602082019050919050565b60006020820190508181036000830152611e9481611e58565b9050919050565b6000604082019050611eb0600083018561157c565b611ebd6020830184611223565b9392505050565b7f4f776e61626c653a206e6577206f776e657220697320746865207a65726f206160008201527f6464726573730000000000000000000000000000000000000000000000000000602082015250565b6000611f206026836119d9565b9150611f2b82611ec4565b604082019050919050565b60006020820190508181036000830152611f4f81611f13565b905091905056fea264697066735822122084030202cc5a6dfb8bc17f3e40b01896f10b35fd63c785c3177925742c9c108264736f6c63430008130033",
  "immutableReferences": {},
  "source": "// SPDX-License-Identifier: MIT\npragma solidity ^0.8.10;\nimport \"./USDCToken.sol\";\nimport \"./Crops.sol\";\nimport \"@openzeppelin/contracts/access/Ownable.sol\";\nimport \"@openzeppelin/contracts/token/ERC1155/utils/ERC1155Holder.sol\";\n\ncontract NFTFarm is Ownable, ERC1155Holder {\n    struct UserInfo {\n        uint256 stakedAmount; // current amount of tokens staked\n        uint256 lastUpdateAt; // timestamp for last details update (when pointsDebt calculated)\n        uint256 pointsDebt; // total wei points collected before latest deposit.\n    }\n\n    struct NFTInfo {\n        uint256 id; // NFT id\n        uint256 remaining; // NFTs remaining to farm\n        uint256 price; // points required to claim NFT\n    }\n\n    uint256 public emissionRate; // wei points (1 point = 10**18) generated per token per second staked\n    USDCToken public token; // mock dai token being staked\n    Crops public crops; // ERC-1155 NFT crops contract\n\n    NFTInfo[] public nftInfo;\n    mapping(address => UserInfo) public userInfo;\n\n    constructor(uint256 _emissionRate, USDCToken _token, Crops _crops) {\n        emissionRate = _emissionRate;\n        token = _token;\n        crops = _crops;\n    }\n\n    function addNFTs(\n        uint256[] calldata _ids,\n        uint256[] calldata _totals, // amount of NFTs deposited to farm (need to approve before)\n        uint256[] calldata _prices\n    ) external onlyOwner {\n        require(\n            _ids.length == _totals.length || _totals.length == _prices.length,\n            \"Incorrect array length\"\n        );\n        crops.safeBatchTransferFrom(\n            msg.sender,\n            address(this),\n            _ids,\n            _totals,\n            \"\"\n        );\n        for (uint64 i = 0; i < _ids.length; i++) {\n            nftInfo.push(\n                NFTInfo({id: _ids[i], remaining: _totals[i], price: _prices[i]})\n            );\n        }\n    }\n\n    function stakeTokens(uint256 _amount) external {\n        token.transferFrom(msg.sender, address(this), _amount);\n\n        UserInfo storage user = userInfo[msg.sender];\n\n        // already deposited before\n        if (user.stakedAmount != 0) {\n            user.pointsDebt = pointsBalance(msg.sender);\n        }\n        user.stakedAmount += _amount;\n        user.lastUpdateAt = block.timestamp;\n    }\n\n    // claim nfts if points threshold reached\n    function claimNFTs(\n        uint256[] calldata _nftIndexes,\n        uint256[] calldata _quantities\n    ) external {\n        require(\n            _nftIndexes.length == _quantities.length,\n            \"Incorrect array length\"\n        );\n        for (uint64 i = 0; i < _nftIndexes.length; i++) {\n            NFTInfo storage nft = nftInfo[_nftIndexes[i]];\n            uint256 cost = nft.price * _quantities[i];\n            uint256 points = pointsBalance(msg.sender);\n            require(\n                nft.remaining > _quantities[i],\n                \"Not enough NFT crops in farm\"\n            );\n            require(points >= cost, \"Insufficient Points\");\n            UserInfo memory user = userInfo[msg.sender];\n            // deduct points\n            user.pointsDebt = points - cost;\n            user.lastUpdateAt = block.timestamp;\n            userInfo[msg.sender] = user;\n            nft.remaining -= _quantities[i];\n        }\n        crops.safeBatchTransferFrom(\n            address(this),\n            msg.sender,\n            _nftIndexes,\n            _quantities,\n            \"\"\n        );\n    }\n\n    function unstakeTokens() public {\n        UserInfo memory user = userInfo[msg.sender];\n        require(user.stakedAmount > 0, \"staking balance cannot be 0\");\n\n        token.transfer(msg.sender, user.stakedAmount);\n\n        // update userInfo\n        user.pointsDebt = pointsBalance(msg.sender);\n        user.stakedAmount = 0;\n        user.lastUpdateAt = block.timestamp;\n        userInfo[msg.sender] = user;\n    }\n\n    function pointsBalance(address userAddress) public view returns (uint256) {\n        UserInfo storage user = userInfo[userAddress];\n        return (user.pointsDebt + (_unDebitedPoints(user)));\n    }\n\n    function _unDebitedPoints(\n        UserInfo memory user\n    ) internal view returns (uint256) {\n        return\n            (block.timestamp - user.lastUpdateAt) *\n            (emissionRate * user.stakedAmount);\n    }\n\n    function nftCount() public view returns (uint256) {\n        return nftInfo.length;\n    }\n}\n",
  "sourcePath": "/Users/c0/Documents/CODE/DappU-recs/zERC1155/DappU-Farm-ERC1155/nft_farm-main/src/contracts/NFTFarm.sol",
  "compiler": {
    "name": "solc",
    "version": "0.8.19+commit.7dd6d404.Emscripten.clang"
  },
  "schemaVersion": "3.4.10",
  "updatedAt": "2023-04-18T23:33:06.733Z",
  "networkType": "ethereum",
  "devdoc": {
    "kind": "dev",
    "methods": {
      "owner()": {
        "details": "Returns the address of the current owner."
      },
      "renounceOwnership()": {
        "details": "Leaves the contract without owner. It will not be possible to call `onlyOwner` functions anymore. Can only be called by the current owner. NOTE: Renouncing ownership will leave the contract without an owner, thereby removing any functionality that is only available to the owner."
      },
      "supportsInterface(bytes4)": {
        "details": "See {IERC165-supportsInterface}."
      },
      "transferOwnership(address)": {
        "details": "Transfers ownership of the contract to a new account (`newOwner`). Can only be called by the current owner."
      }
    },
    "version": 1
  },
  "userdoc": {
    "kind": "user",
    "methods": {},
    "version": 1
  }
}